{
  "contractName": "EcoPulse",
  "abi": [
    {
      "inputs": [],
      "stateMutability": "nonpayable",
      "type": "constructor"
    },
    {
      "inputs": [
        {
          "internalType": "address",
          "name": "spender",
          "type": "address"
        },
        {
          "internalType": "uint256",
          "name": "allowance",
          "type": "uint256"
        },
        {
          "internalType": "uint256",
          "name": "needed",
          "type": "uint256"
        }
      ],
      "name": "ERC20InsufficientAllowance",
      "type": "error"
    },
    {
      "inputs": [
        {
          "internalType": "address",
          "name": "sender",
          "type": "address"
        },
        {
          "internalType": "uint256",
          "name": "balance",
          "type": "uint256"
        },
        {
          "internalType": "uint256",
          "name": "needed",
          "type": "uint256"
        }
      ],
      "name": "ERC20InsufficientBalance",
      "type": "error"
    },
    {
      "inputs": [
        {
          "internalType": "address",
          "name": "approver",
          "type": "address"
        }
      ],
      "name": "ERC20InvalidApprover",
      "type": "error"
    },
    {
      "inputs": [
        {
          "internalType": "address",
          "name": "receiver",
          "type": "address"
        }
      ],
      "name": "ERC20InvalidReceiver",
      "type": "error"
    },
    {
      "inputs": [
        {
          "internalType": "address",
          "name": "sender",
          "type": "address"
        }
      ],
      "name": "ERC20InvalidSender",
      "type": "error"
    },
    {
      "inputs": [
        {
          "internalType": "address",
          "name": "spender",
          "type": "address"
        }
      ],
      "name": "ERC20InvalidSpender",
      "type": "error"
    },
    {
      "anonymous": false,
      "inputs": [
        {
          "indexed": true,
          "internalType": "address",
          "name": "owner",
          "type": "address"
        },
        {
          "indexed": true,
          "internalType": "address",
          "name": "spender",
          "type": "address"
        },
        {
          "indexed": false,
          "internalType": "uint256",
          "name": "value",
          "type": "uint256"
        }
      ],
      "name": "Approval",
      "type": "event"
    },
    {
      "anonymous": false,
      "inputs": [
        {
          "indexed": true,
          "internalType": "address",
          "name": "from",
          "type": "address"
        },
        {
          "indexed": false,
          "internalType": "uint256",
          "name": "amount",
          "type": "uint256"
        }
      ],
      "name": "TaxPaid",
      "type": "event"
    },
    {
      "anonymous": false,
      "inputs": [
        {
          "indexed": true,
          "internalType": "address",
          "name": "from",
          "type": "address"
        },
        {
          "indexed": false,
          "internalType": "uint256",
          "name": "amount",
          "type": "uint256"
        }
      ],
      "name": "TokensBurned",
      "type": "event"
    },
    {
      "anonymous": false,
      "inputs": [
        {
          "indexed": true,
          "internalType": "address",
          "name": "from",
          "type": "address"
        },
        {
          "indexed": true,
          "internalType": "address",
          "name": "to",
          "type": "address"
        },
        {
          "indexed": false,
          "internalType": "uint256",
          "name": "value",
          "type": "uint256"
        }
      ],
      "name": "Transfer",
      "type": "event"
    },
    {
      "inputs": [
        {
          "internalType": "address",
          "name": "owner",
          "type": "address"
        },
        {
          "internalType": "address",
          "name": "spender",
          "type": "address"
        }
      ],
      "name": "allowance",
      "outputs": [
        {
          "internalType": "uint256",
          "name": "",
          "type": "uint256"
        }
      ],
      "stateMutability": "view",
      "type": "function"
    },
    {
      "inputs": [
        {
          "internalType": "address",
          "name": "spender",
          "type": "address"
        },
        {
          "internalType": "uint256",
          "name": "value",
          "type": "uint256"
        }
      ],
      "name": "approve",
      "outputs": [
        {
          "internalType": "bool",
          "name": "",
          "type": "bool"
        }
      ],
      "stateMutability": "nonpayable",
      "type": "function"
    },
    {
      "inputs": [
        {
          "internalType": "address",
          "name": "account",
          "type": "address"
        }
      ],
      "name": "balanceOf",
      "outputs": [
        {
          "internalType": "uint256",
          "name": "",
          "type": "uint256"
        }
      ],
      "stateMutability": "view",
      "type": "function"
    },
    {
      "inputs": [],
      "name": "burnPercentage",
      "outputs": [
        {
          "internalType": "uint256",
          "name": "",
          "type": "uint256"
        }
      ],
      "stateMutability": "view",
      "type": "function"
    },
    {
      "inputs": [],
      "name": "decimals",
      "outputs": [
        {
          "internalType": "uint8",
          "name": "",
          "type": "uint8"
        }
      ],
      "stateMutability": "view",
      "type": "function"
    },
    {
      "inputs": [
        {
          "internalType": "address",
          "name": "",
          "type": "address"
        }
      ],
      "name": "isExcludedFromTax",
      "outputs": [
        {
          "internalType": "bool",
          "name": "",
          "type": "bool"
        }
      ],
      "stateMutability": "view",
      "type": "function"
    },
    {
      "inputs": [],
      "name": "name",
      "outputs": [
        {
          "internalType": "string",
          "name": "",
          "type": "string"
        }
      ],
      "stateMutability": "view",
      "type": "function"
    },
    {
      "inputs": [],
      "name": "owner",
      "outputs": [
        {
          "internalType": "address",
          "name": "",
          "type": "address"
        }
      ],
      "stateMutability": "view",
      "type": "function"
    },
    {
      "inputs": [],
      "name": "symbol",
      "outputs": [
        {
          "internalType": "string",
          "name": "",
          "type": "string"
        }
      ],
      "stateMutability": "view",
      "type": "function"
    },
    {
      "inputs": [],
      "name": "taxPercentage",
      "outputs": [
        {
          "internalType": "uint256",
          "name": "",
          "type": "uint256"
        }
      ],
      "stateMutability": "view",
      "type": "function"
    },
    {
      "inputs": [],
      "name": "totalSupply",
      "outputs": [
        {
          "internalType": "uint256",
          "name": "",
          "type": "uint256"
        }
      ],
      "stateMutability": "view",
      "type": "function"
    },
    {
      "inputs": [
        {
          "internalType": "address",
          "name": "from",
          "type": "address"
        },
        {
          "internalType": "address",
          "name": "to",
          "type": "address"
        },
        {
          "internalType": "uint256",
          "name": "value",
          "type": "uint256"
        }
      ],
      "name": "transferFrom",
      "outputs": [
        {
          "internalType": "bool",
          "name": "",
          "type": "bool"
        }
      ],
      "stateMutability": "nonpayable",
      "type": "function"
    },
    {
      "inputs": [
        {
          "internalType": "address",
          "name": "recipient",
          "type": "address"
        },
        {
          "internalType": "uint256",
          "name": "amount",
          "type": "uint256"
        }
      ],
      "name": "transfer",
      "outputs": [
        {
          "internalType": "bool",
          "name": "",
          "type": "bool"
        }
      ],
      "stateMutability": "nonpayable",
      "type": "function"
    },
    {
      "inputs": [
        {
          "internalType": "address",
          "name": "account",
          "type": "address"
        }
      ],
      "name": "excludeFromTax",
      "outputs": [],
      "stateMutability": "nonpayable",
      "type": "function"
    },
    {
      "inputs": [
        {
          "internalType": "address",
          "name": "account",
          "type": "address"
        }
      ],
      "name": "includeInTax",
      "outputs": [],
      "stateMutability": "nonpayable",
      "type": "function"
    },
    {
      "inputs": [
        {
          "internalType": "uint256",
          "name": "newTaxPercentage",
          "type": "uint256"
        }
      ],
      "name": "setTaxPercentage",
      "outputs": [],
      "stateMutability": "nonpayable",
      "type": "function"
    },
    {
      "inputs": [
        {
          "internalType": "uint256",
          "name": "newBurnPercentage",
          "type": "uint256"
        }
      ],
      "name": "setBurnPercentage",
      "outputs": [],
      "stateMutability": "nonpayable",
      "type": "function"
    }
  ],
  "bytecode": "0x6080604052600260065560016007553480156200001a575f80fd5b506040518060400160405280600881526020017f45636f50756c73650000000000000000000000000000000000000000000000008152506040518060400160405280600381526020017f45434f00000000000000000000000000000000000000000000000000000000008152508160039081620000989190620006a1565b508060049081620000aa9190620006a1565b5050503360055f6101000a81548173ffffffffffffffffffffffffffffffffffffffff021916908373ffffffffffffffffffffffffffffffffffffffff1602179055506200012c33620001026200018760201b60201c565b600a6200011091906200090e565b621e84806200012091906200095e565b6200018f60201b60201c565b600160085f3373ffffffffffffffffffffffffffffffffffffffff1673ffffffffffffffffffffffffffffffffffffffff1681526020019081526020015f205f6101000a81548160ff02191690831515021790555062000aa7565b5f6012905090565b5f73ffffffffffffffffffffffffffffffffffffffff168273ffffffffffffffffffffffffffffffffffffffff160362000202575f6040517fec442f05000000000000000000000000000000000000000000000000000000008152600401620001f99190620009eb565b60405180910390fd5b620002155f83836200021960201b60201c565b5050565b5f73ffffffffffffffffffffffffffffffffffffffff168373ffffffffffffffffffffffffffffffffffffffff16036200026d578060025f82825462000260919062000a06565b925050819055506200033e565b5f805f8573ffffffffffffffffffffffffffffffffffffffff1673ffffffffffffffffffffffffffffffffffffffff1681526020019081526020015f2054905081811015620002f9578381836040517fe450d38c000000000000000000000000000000000000000000000000000000008152600401620002f09392919062000a51565b60405180910390fd5b8181035f808673ffffffffffffffffffffffffffffffffffffffff1673ffffffffffffffffffffffffffffffffffffffff1681526020019081526020015f2081905550505b5f73ffffffffffffffffffffffffffffffffffffffff168273ffffffffffffffffffffffffffffffffffffffff160362000387578060025f8282540392505081905550620003d1565b805f808473ffffffffffffffffffffffffffffffffffffffff1673ffffffffffffffffffffffffffffffffffffffff1681526020019081526020015f205f82825401925050819055505b8173ffffffffffffffffffffffffffffffffffffffff168373ffffffffffffffffffffffffffffffffffffffff167fddf252ad1be2c89b69c2b068fc378daa952ba7f163c4a11628f55a4df523b3ef8360405162000430919062000a8c565b60405180910390a3505050565b5f81519050919050565b7f4e487b71000000000000000000000000000000000000000000000000000000005f52604160045260245ffd5b7f4e487b71000000000000000000000000000000000000000000000000000000005f52602260045260245ffd5b5f6002820490506001821680620004b957607f821691505b602082108103620004cf57620004ce62000474565b5b50919050565b5f819050815f5260205f209050919050565b5f6020601f8301049050919050565b5f82821b905092915050565b5f60088302620005337fffffffffffffffffffffffffffffffffffffffffffffffffffffffffffffffff82620004f6565b6200053f8683620004f6565b95508019841693508086168417925050509392505050565b5f819050919050565b5f819050919050565b5f62000589620005836200057d8462000557565b62000560565b62000557565b9050919050565b5f819050919050565b620005a48362000569565b620005bc620005b38262000590565b84845462000502565b825550505050565b5f90565b620005d2620005c4565b620005df81848462000599565b505050565b5b818110156200060657620005fa5f82620005c8565b600181019050620005e5565b5050565b601f82111562000655576200061f81620004d5565b6200062a84620004e7565b810160208510156200063a578190505b620006526200064985620004e7565b830182620005e4565b50505b505050565b5f82821c905092915050565b5f620006775f19846008026200065a565b1980831691505092915050565b5f62000691838362000666565b9150826002028217905092915050565b620006ac826200043d565b67ffffffffffffffff811115620006c857620006c762000447565b5b620006d48254620004a1565b620006e18282856200060a565b5f60209050601f83116001811462000717575f841562000702578287015190505b6200070e858262000684565b8655506200077d565b601f1984166200072786620004d5565b5f5b82811015620007505784890151825560018201915060208501945060208101905062000729565b868310156200077057848901516200076c601f89168262000666565b8355505b6001600288020188555050505b505050505050565b7f4e487b71000000000000000000000000000000000000000000000000000000005f52601160045260245ffd5b5f8160011c9050919050565b5f808291508390505b60018511156200080f57808604811115620007e757620007e662000785565b5b6001851615620007f75780820291505b80810290506200080785620007b2565b9450620007c7565b94509492505050565b5f82620008295760019050620008fb565b8162000838575f9050620008fb565b81600181146200085157600281146200085c5762000892565b6001915050620008fb565b60ff84111562000871576200087062000785565b5b8360020a9150848211156200088b576200088a62000785565b5b50620008fb565b5060208310610133831016604e8410600b8410161715620008cc5782820a905083811115620008c657620008c562000785565b5b620008fb565b620008db8484846001620007be565b92509050818404811115620008f557620008f462000785565b5b81810290505b9392505050565b5f60ff82169050919050565b5f6200091a8262000557565b9150620009278362000902565b9250620009567fffffffffffffffffffffffffffffffffffffffffffffffffffffffffffffffff848462000818565b905092915050565b5f6200096a8262000557565b9150620009778362000557565b9250828202620009878162000557565b91508282048414831517620009a157620009a062000785565b5b5092915050565b5f73ffffffffffffffffffffffffffffffffffffffff82169050919050565b5f620009d382620009a8565b9050919050565b620009e581620009c7565b82525050565b5f60208201905062000a005f830184620009da565b92915050565b5f62000a128262000557565b915062000a1f8362000557565b925082820190508082111562000a3a5762000a3962000785565b5b92915050565b62000a4b8162000557565b82525050565b5f60608201905062000a665f830186620009da565b62000a75602083018562000a40565b62000a84604083018462000a40565b949350505050565b5f60208201905062000aa15f83018462000a40565b92915050565b6118728062000ab55f395ff3fe608060405234801561000f575f80fd5b5060043610610109575f3560e01c80638da5cb5b116100a0578063c3f0d3271161006f578063c3f0d327146102b9578063cb4ca631146102d5578063dd62ed3e14610305578063e17c4c7414610335578063f01f20df1461035157610109565b80638da5cb5b1461022f57806395d89b411461024d578063a9059cbb1461026b578063ae7b6d161461029b57610109565b8063313ce567116100dc578063313ce567146101a957806360d1259e146101c7578063699abb3c146101e357806370a08231146101ff57610109565b806306fdde031461010d578063095ea7b31461012b57806318160ddd1461015b57806323b872dd14610179575b5f80fd5b61011561036f565b6040516101229190611203565b60405180910390f35b610145600480360381019061014091906112b4565b6103ff565b604051610152919061130c565b60405180910390f35b610163610421565b6040516101709190611334565b60405180910390f35b610193600480360381019061018e919061134d565b61042a565b6040516101a0919061130c565b60405180910390f35b6101b1610458565b6040516101be91906113b8565b60405180910390f35b6101e160048036038101906101dc91906113d1565b610460565b005b6101fd60048036038101906101f891906113fc565b610547565b005b610219600480360381019061021491906113d1565b6105e0565b6040516102269190611334565b60405180910390f35b610237610625565b6040516102449190611436565b60405180910390f35b61025561064a565b6040516102629190611203565b60405180910390f35b610285600480360381019061028091906112b4565b6106da565b604051610292919061130c565b60405180910390f35b6102a361094d565b6040516102b09190611334565b60405180910390f35b6102d360048036038101906102ce91906113fc565b610953565b005b6102ef60048036038101906102ea91906113d1565b6109ec565b6040516102fc919061130c565b60405180910390f35b61031f600480360381019061031a919061144f565b610a09565b60405161032c9190611334565b60405180910390f35b61034f600480360381019061034a91906113d1565b610a8b565b005b610359610b71565b6040516103669190611334565b60405180910390f35b60606003805461037e906114ba565b80601f01602080910402602001604051908101604052809291908181526020018280546103aa906114ba565b80156103f55780601f106103cc576101008083540402835291602001916103f5565b820191905f5260205f20905b8154815290600101906020018083116103d857829003601f168201915b5050505050905090565b5f80610409610b77565b9050610416818585610b7e565b600191505092915050565b5f600254905090565b5f80610434610b77565b9050610441858285610b90565b61044c858585610c22565b60019150509392505050565b5f6012905090565b60055f9054906101000a900473ffffffffffffffffffffffffffffffffffffffff1673ffffffffffffffffffffffffffffffffffffffff163373ffffffffffffffffffffffffffffffffffffffff16146104ef576040517f08c379a00000000000000000000000000000000000000000000000000000000081526004016104e69061155a565b60405180910390fd5b600160085f8373ffffffffffffffffffffffffffffffffffffffff1673ffffffffffffffffffffffffffffffffffffffff1681526020019081526020015f205f6101000a81548160ff02191690831515021790555050565b60055f9054906101000a900473ffffffffffffffffffffffffffffffffffffffff1673ffffffffffffffffffffffffffffffffffffffff163373ffffffffffffffffffffffffffffffffffffffff16146105d6576040517f08c379a00000000000000000000000000000000000000000000000000000000081526004016105cd9061155a565b60405180910390fd5b8060068190555050565b5f805f8373ffffffffffffffffffffffffffffffffffffffff1673ffffffffffffffffffffffffffffffffffffffff1681526020019081526020015f20549050919050565b60055f9054906101000a900473ffffffffffffffffffffffffffffffffffffffff1681565b606060048054610659906114ba565b80601f0160208091040260200160405190810160405280929190818152602001828054610685906114ba565b80156106d05780601f106106a7576101008083540402835291602001916106d0565b820191905f5260205f20905b8154815290600101906020018083116106b357829003601f168201915b5050505050905090565b5f80821161071d576040517f08c379a0000000000000000000000000000000000000000000000000000000008152600401610714906115c2565b60405180910390fd5b610726336105e0565b821115610768576040517f08c379a000000000000000000000000000000000000000000000000000000000815260040161075f9061162a565b60405180910390fd5b5f6064600654846107799190611675565b61078391906116e3565b90505f6064600754856107969190611675565b6107a091906116e3565b90505f8183866107b09190611713565b6107ba9190611713565b90505f81116107fe576040517f08c379a00000000000000000000000000000000000000000000000000000000081526004016107f5906117b6565b60405180910390fd5b5f83118015610854575060085f3373ffffffffffffffffffffffffffffffffffffffff1673ffffffffffffffffffffffffffffffffffffffff1681526020019081526020015f205f9054906101000a900460ff16155b156108d4576108853360055f9054906101000a900473ffffffffffffffffffffffffffffffffffffffff1685610c22565b3373ffffffffffffffffffffffffffffffffffffffff167f27fc3eb39a19331c30d955706825686fd200a5e5056d33f23caecccca75d2184846040516108cb9190611334565b60405180910390a25b5f821115610935576108e63383610d12565b3373ffffffffffffffffffffffffffffffffffffffff167ffd38818f5291bf0bb3a2a48aadc06ba8757865d1dabd804585338aab3009dcb68360405161092c9190611334565b60405180910390a25b610940338783610c22565b6001935050505092915050565b60065481565b60055f9054906101000a900473ffffffffffffffffffffffffffffffffffffffff1673ffffffffffffffffffffffffffffffffffffffff163373ffffffffffffffffffffffffffffffffffffffff16146109e2576040517f08c379a00000000000000000000000000000000000000000000000000000000081526004016109d99061155a565b60405180910390fd5b8060078190555050565b6008602052805f5260405f205f915054906101000a900460ff1681565b5f60015f8473ffffffffffffffffffffffffffffffffffffffff1673ffffffffffffffffffffffffffffffffffffffff1681526020019081526020015f205f8373ffffffffffffffffffffffffffffffffffffffff1673ffffffffffffffffffffffffffffffffffffffff1681526020019081526020015f2054905092915050565b60055f9054906101000a900473ffffffffffffffffffffffffffffffffffffffff1673ffffffffffffffffffffffffffffffffffffffff163373ffffffffffffffffffffffffffffffffffffffff1614610b1a576040517f08c379a0000000000000000000000000000000000000000000000000000000008152600401610b119061155a565b60405180910390fd5b5f60085f8373ffffffffffffffffffffffffffffffffffffffff1673ffffffffffffffffffffffffffffffffffffffff1681526020019081526020015f205f6101000a81548160ff02191690831515021790555050565b60075481565b5f33905090565b610b8b8383836001610d91565b505050565b5f610b9b8484610a09565b90507fffffffffffffffffffffffffffffffffffffffffffffffffffffffffffffffff8114610c1c5781811015610c0d578281836040517ffb8f41b2000000000000000000000000000000000000000000000000000000008152600401610c04939291906117d4565b60405180910390fd5b610c1b84848484035f610d91565b5b50505050565b5f73ffffffffffffffffffffffffffffffffffffffff168373ffffffffffffffffffffffffffffffffffffffff1603610c92575f6040517f96c6fd1e000000000000000000000000000000000000000000000000000000008152600401610c899190611436565b60405180910390fd5b5f73ffffffffffffffffffffffffffffffffffffffff168273ffffffffffffffffffffffffffffffffffffffff1603610d02575f6040517fec442f05000000000000000000000000000000000000000000000000000000008152600401610cf99190611436565b60405180910390fd5b610d0d838383610f60565b505050565b5f73ffffffffffffffffffffffffffffffffffffffff168273ffffffffffffffffffffffffffffffffffffffff1603610d82575f6040517f96c6fd1e000000000000000000000000000000000000000000000000000000008152600401610d799190611436565b60405180910390fd5b610d8d825f83610f60565b5050565b5f73ffffffffffffffffffffffffffffffffffffffff168473ffffffffffffffffffffffffffffffffffffffff1603610e01575f6040517fe602df05000000000000000000000000000000000000000000000000000000008152600401610df89190611436565b60405180910390fd5b5f73ffffffffffffffffffffffffffffffffffffffff168373ffffffffffffffffffffffffffffffffffffffff1603610e71575f6040517f94280d62000000000000000000000000000000000000000000000000000000008152600401610e689190611436565b60405180910390fd5b8160015f8673ffffffffffffffffffffffffffffffffffffffff1673ffffffffffffffffffffffffffffffffffffffff1681526020019081526020015f205f8573ffffffffffffffffffffffffffffffffffffffff1673ffffffffffffffffffffffffffffffffffffffff1681526020019081526020015f20819055508015610f5a578273ffffffffffffffffffffffffffffffffffffffff168473ffffffffffffffffffffffffffffffffffffffff167f8c5be1e5ebec7d5bd14f71427d1e84f3dd0314c0f7b2291e5b200ac8c7c3b92584604051610f519190611334565b60405180910390a35b50505050565b5f73ffffffffffffffffffffffffffffffffffffffff168373ffffffffffffffffffffffffffffffffffffffff1603610fb0578060025f828254610fa49190611809565b9250508190555061107e565b5f805f8573ffffffffffffffffffffffffffffffffffffffff1673ffffffffffffffffffffffffffffffffffffffff1681526020019081526020015f2054905081811015611039578381836040517fe450d38c000000000000000000000000000000000000000000000000000000008152600401611030939291906117d4565b60405180910390fd5b8181035f808673ffffffffffffffffffffffffffffffffffffffff1673ffffffffffffffffffffffffffffffffffffffff1681526020019081526020015f2081905550505b5f73ffffffffffffffffffffffffffffffffffffffff168273ffffffffffffffffffffffffffffffffffffffff16036110c5578060025f828254039250508190555061110f565b805f808473ffffffffffffffffffffffffffffffffffffffff1673ffffffffffffffffffffffffffffffffffffffff1681526020019081526020015f205f82825401925050819055505b8173ffffffffffffffffffffffffffffffffffffffff168373ffffffffffffffffffffffffffffffffffffffff167fddf252ad1be2c89b69c2b068fc378daa952ba7f163c4a11628f55a4df523b3ef8360405161116c9190611334565b60405180910390a3505050565b5f81519050919050565b5f82825260208201905092915050565b5f5b838110156111b0578082015181840152602081019050611195565b5f8484015250505050565b5f601f19601f8301169050919050565b5f6111d582611179565b6111df8185611183565b93506111ef818560208601611193565b6111f8816111bb565b840191505092915050565b5f6020820190508181035f83015261121b81846111cb565b905092915050565b5f80fd5b5f73ffffffffffffffffffffffffffffffffffffffff82169050919050565b5f61125082611227565b9050919050565b61126081611246565b811461126a575f80fd5b50565b5f8135905061127b81611257565b92915050565b5f819050919050565b61129381611281565b811461129d575f80fd5b50565b5f813590506112ae8161128a565b92915050565b5f80604083850312156112ca576112c9611223565b5b5f6112d78582860161126d565b92505060206112e8858286016112a0565b9150509250929050565b5f8115159050919050565b611306816112f2565b82525050565b5f60208201905061131f5f8301846112fd565b92915050565b61132e81611281565b82525050565b5f6020820190506113475f830184611325565b92915050565b5f805f6060848603121561136457611363611223565b5b5f6113718682870161126d565b93505060206113828682870161126d565b9250506040611393868287016112a0565b9150509250925092565b5f60ff82169050919050565b6113b28161139d565b82525050565b5f6020820190506113cb5f8301846113a9565b92915050565b5f602082840312156113e6576113e5611223565b5b5f6113f38482850161126d565b91505092915050565b5f6020828403121561141157611410611223565b5b5f61141e848285016112a0565b91505092915050565b61143081611246565b82525050565b5f6020820190506114495f830184611427565b92915050565b5f806040838503121561146557611464611223565b5b5f6114728582860161126d565b92505060206114838582860161126d565b9150509250929050565b7f4e487b71000000000000000000000000000000000000000000000000000000005f52602260045260245ffd5b5f60028204905060018216806114d157607f821691505b6020821081036114e4576114e361148d565b5b50919050565b7f536f6d656e7465206f2070726f70726965746172696f20706f646520657865635f8201527f7574617220657374612066756e63616f00000000000000000000000000000000602082015250565b5f611544603083611183565b915061154f826114ea565b604082019050919050565b5f6020820190508181035f83015261157181611538565b9050919050565b7f4f2076616c6f72206465766520736572206d61696f7220717565207a65726f005f82015250565b5f6115ac601f83611183565b91506115b782611578565b602082019050919050565b5f6020820190508181035f8301526115d9816115a0565b9050919050565b7f53616c646f20696e737566696369656e746500000000000000000000000000005f82015250565b5f611614601283611183565b915061161f826115e0565b602082019050919050565b5f6020820190508181035f83015261164181611608565b9050919050565b7f4e487b71000000000000000000000000000000000000000000000000000000005f52601160045260245ffd5b5f61167f82611281565b915061168a83611281565b925082820261169881611281565b915082820484148315176116af576116ae611648565b5b5092915050565b7f4e487b71000000000000000000000000000000000000000000000000000000005f52601260045260245ffd5b5f6116ed82611281565b91506116f883611281565b925082611708576117076116b6565b5b828204905092915050565b5f61171d82611281565b915061172883611281565b92508282039050818111156117405761173f611648565b5b92915050565b7f5472616e73666572656e63696120726573756c7461726120656d2076616c6f725f8201527f206e6567617469766f0000000000000000000000000000000000000000000000602082015250565b5f6117a0602983611183565b91506117ab82611746565b604082019050919050565b5f6020820190508181035f8301526117cd81611794565b9050919050565b5f6060820190506117e75f830186611427565b6117f46020830185611325565b6118016040830184611325565b949350505050565b5f61181382611281565b915061181e83611281565b925082820190508082111561183657611835611648565b5b9291505056fea2646970667358221220fc1ddb1e0cd4fd1e56c9258f3405db5bccd12ff116140f0b18a453233e5d4bad64736f6c63430008150033",
  "immutableReferences": {},
  "source": "// SPDX-License-Identifier: MIT\npragma solidity ^0.8.21;\n\n// Importa a implementao do token ERC20 da biblioteca OpenZeppelin\nimport \"@openzeppelin/contracts/token/ERC20/ERC20.sol\";\n\ncontract EcoPulse is ERC20 {\n    address public owner; // Armazena o endereo do proprietrio\n    uint256 public taxPercentage = 2; // 2% de taxa\n    uint256 public burnPercentage = 1; // 1% dos tokens queimados\n    mapping(address => bool) public isExcludedFromTax; // Mapeia endereos excludos da taxa\n\n    // Eventos para rastreamento\n    event TaxPaid(address indexed from, uint256 amount); // Evento para taxas pagas\n    event TokensBurned(address indexed from, uint256 amount); // Evento para tokens queimados\n\n    // Modificador onlyOwner para restringir funes ao proprietrio\n    modifier onlyOwner() {\n        require(msg.sender == owner, \"Somente o proprietario pode executar esta funcao\");\n        _;\n    }\n\n    // Construtor do contrato\n    constructor() ERC20(\"EcoPulse\", \"ECO\") {\n        owner = msg.sender; // Define o proprietrio inicial como o criador do contrato\n        _mint(msg.sender, 2000000 * 10 ** decimals()); // Mintar 2 milhes de tokens\n        isExcludedFromTax[msg.sender] = true; // Excluir o criador do contrato das taxas\n    }\n\n    // Funo de transferncia com lgica de taxa e queima\n    function transfer(address recipient, uint256 amount) public override returns (bool) {\n        require(amount > 0, \"O valor deve ser maior que zero\");\n        require(amount <= balanceOf(msg.sender), \"Saldo insuficiente\");\n\n        uint256 tax = (amount * taxPercentage) / 100; // Calcula a taxa\n        uint256 burnAmount = (amount * burnPercentage) / 100; // Calcula a quantidade a queimar\n        uint256 transferAmount = amount - tax - burnAmount; // Quantidade a ser transferida\n\n        require(transferAmount > 0, \"Transferencia resultara em valor negativo\");\n\n        // Se a taxa for maior que zero e o remetente no estiver excludo da taxa\n        if (tax > 0 && !isExcludedFromTax[msg.sender]) {\n            _transfer(msg.sender, owner, tax); // Envia a taxa para o proprietrio\n            emit TaxPaid(msg.sender, tax); // Emitir evento de taxa paga\n        }\n\n        // Se houver tokens a serem queimados\n        if (burnAmount > 0) {\n            _burn(msg.sender, burnAmount); // Queimar tokens\n            emit TokensBurned(msg.sender, burnAmount); // Emitir evento de tokens queimados\n        }\n\n        _transfer(msg.sender, recipient, transferAmount); // Transferir o restante\n        return true; // Retorna verdadeiro se a transferncia for bem-sucedida\n    }\n\n    // Funo para excluir um endereo da taxa\n    function excludeFromTax(address account) external onlyOwner {\n        isExcludedFromTax[account] = true;\n    }\n\n    // Funo para incluir um endereo na taxa\n    function includeInTax(address account) external onlyOwner {\n        isExcludedFromTax[account] = false;\n    }\n\n    // Funo para alterar a porcentagem da taxa\n    function setTaxPercentage(uint256 newTaxPercentage) external onlyOwner {\n        taxPercentage = newTaxPercentage;\n    }\n\n    // Funo para alterar a porcentagem da queima\n    function setBurnPercentage(uint256 newBurnPercentage) external onlyOwner {\n        burnPercentage = newBurnPercentage;\n    }\n}\n\n",
  "sourcePath": "/home/thiago/EcoPulse/contracts/EcoPulse.sol",
  "compiler": {
    "name": "solc",
    "version": "0.8.21+commit.d9974bed.Emscripten.clang"
  },
  "schemaVersion": "3.4.16",
  "updatedAt": "2024-10-29T16:43:14.152Z",
  "devdoc": {
    "errors": {
      "ERC20InsufficientAllowance(address,uint256,uint256)": [
        {
          "details": "Indicates a failure with the `spender`s `allowance`. Used in transfers.",
          "params": {
            "allowance": "Amount of tokens a `spender` is allowed to operate with.",
            "needed": "Minimum amount required to perform a transfer.",
            "spender": "Address that may be allowed to operate on tokens without being their owner."
          }
        }
      ],
      "ERC20InsufficientBalance(address,uint256,uint256)": [
        {
          "details": "Indicates an error related to the current `balance` of a `sender`. Used in transfers.",
          "params": {
            "balance": "Current balance for the interacting account.",
            "needed": "Minimum amount required to perform a transfer.",
            "sender": "Address whose tokens are being transferred."
          }
        }
      ],
      "ERC20InvalidApprover(address)": [
        {
          "details": "Indicates a failure with the `approver` of a token to be approved. Used in approvals.",
          "params": {
            "approver": "Address initiating an approval operation."
          }
        }
      ],
      "ERC20InvalidReceiver(address)": [
        {
          "details": "Indicates a failure with the token `receiver`. Used in transfers.",
          "params": {
            "receiver": "Address to which tokens are being transferred."
          }
        }
      ],
      "ERC20InvalidSender(address)": [
        {
          "details": "Indicates a failure with the token `sender`. Used in transfers.",
          "params": {
            "sender": "Address whose tokens are being transferred."
          }
        }
      ],
      "ERC20InvalidSpender(address)": [
        {
          "details": "Indicates a failure with the `spender` to be approved. Used in approvals.",
          "params": {
            "spender": "Address that may be allowed to operate on tokens without being their owner."
          }
        }
      ]
    },
    "events": {
      "Approval(address,address,uint256)": {
        "details": "Emitted when the allowance of a `spender` for an `owner` is set by a call to {approve}. `value` is the new allowance."
      },
      "Transfer(address,address,uint256)": {
        "details": "Emitted when `value` tokens are moved from one account (`from`) to another (`to`). Note that `value` may be zero."
      }
    },
    "kind": "dev",
    "methods": {
      "allowance(address,address)": {
        "details": "See {IERC20-allowance}."
      },
      "approve(address,uint256)": {
        "details": "See {IERC20-approve}. NOTE: If `value` is the maximum `uint256`, the allowance is not updated on `transferFrom`. This is semantically equivalent to an infinite approval. Requirements: - `spender` cannot be the zero address."
      },
      "balanceOf(address)": {
        "details": "See {IERC20-balanceOf}."
      },
      "decimals()": {
        "details": "Returns the number of decimals used to get its user representation. For example, if `decimals` equals `2`, a balance of `505` tokens should be displayed to a user as `5.05` (`505 / 10 ** 2`). Tokens usually opt for a value of 18, imitating the relationship between Ether and Wei. This is the default value returned by this function, unless it's overridden. NOTE: This information is only used for _display_ purposes: it in no way affects any of the arithmetic of the contract, including {IERC20-balanceOf} and {IERC20-transfer}."
      },
      "name()": {
        "details": "Returns the name of the token."
      },
      "symbol()": {
        "details": "Returns the symbol of the token, usually a shorter version of the name."
      },
      "totalSupply()": {
        "details": "See {IERC20-totalSupply}."
      },
      "transferFrom(address,address,uint256)": {
        "details": "See {IERC20-transferFrom}. Skips emitting an {Approval} event indicating an allowance update. This is not required by the ERC. See {xref-ERC20-_approve-address-address-uint256-bool-}[_approve]. NOTE: Does not update the allowance if the current allowance is the maximum `uint256`. Requirements: - `from` and `to` cannot be the zero address. - `from` must have a balance of at least `value`. - the caller must have allowance for ``from``'s tokens of at least `value`."
      }
    },
    "version": 1
  },
  "userdoc": {
    "kind": "user",
    "methods": {},
    "version": 1
  }
}